{"abi":[{"type":"constructor","inputs":[{"name":"_asset","type":"address","internalType":"contract ERC20"}],"stateMutability":"nonpayable"},{"type":"fallback","stateMutability":"payable"},{"type":"receive","stateMutability":"payable"},{"type":"function","name":"getAsset","inputs":[],"outputs":[{"name":"","type":"address","internalType":"address"}],"stateMutability":"view"},{"type":"function","name":"getAssetName","inputs":[],"outputs":[{"name":"","type":"string","internalType":"string"}],"stateMutability":"view"}],"bytecode":{"object":"0x60a060405234801561000f575f5ffd5b5060405161057d38038061057d833981810160405281019061003191906100da565b8073ffffffffffffffffffffffffffffffffffffffff1660808173ffffffffffffffffffffffffffffffffffffffff168152505050610105565b5f5ffd5b5f73ffffffffffffffffffffffffffffffffffffffff82169050919050565b5f6100988261006f565b9050919050565b5f6100a98261008e565b9050919050565b6100b98161009f565b81146100c3575f5ffd5b50565b5f815190506100d4816100b0565b92915050565b5f602082840312156100ef576100ee61006b565b5b5f6100fc848285016100c6565b91505092915050565b60805161045a6101235f395f8181608701526101a2015261045a5ff3fe60806040526004361061002c575f3560e01c8063092d4eb51461002f5780635c222bad146100595761002d565b5b005b34801561003a575f5ffd5b50610043610083565b6040516100509190610236565b60405180910390f35b348015610064575f5ffd5b5061006d61019f565b60405161007a9190610295565b60405180910390f35b60607f000000000000000000000000000000000000000000000000000000000000000073ffffffffffffffffffffffffffffffffffffffff166306fdde036040518163ffffffff1660e01b81526004015f60405180830381865afa92505050801561011057506040513d5f823e3d601f19601f8201168201806040525081019061010d91906103dd565b60015b610151576040518060400160405280600d81526020017f556e6b6e6f776e20417373657400000000000000000000000000000000000000815250905061019c565b5f815103610197576040518060400160405280600d81526020017f556e6b6e6f776e2041737365740000000000000000000000000000000000000081525091505061019c565b809150505b90565b5f7f0000000000000000000000000000000000000000000000000000000000000000905090565b5f81519050919050565b5f82825260208201905092915050565b8281835e5f83830152505050565b5f601f19601f8301169050919050565b5f610208826101c6565b61021281856101d0565b93506102228185602086016101e0565b61022b816101ee565b840191505092915050565b5f6020820190508181035f83015261024e81846101fe565b905092915050565b5f73ffffffffffffffffffffffffffffffffffffffff82169050919050565b5f61027f82610256565b9050919050565b61028f81610275565b82525050565b5f6020820190506102a85f830184610286565b92915050565b5f604051905090565b5f5ffd5b5f5ffd5b5f5ffd5b5f5ffd5b7f4e487b71000000000000000000000000000000000000000000000000000000005f52604160045260245ffd5b6102fd826101ee565b810181811067ffffffffffffffff8211171561031c5761031b6102c7565b5b80604052505050565b5f61032e6102ae565b905061033a82826102f4565b919050565b5f67ffffffffffffffff821115610359576103586102c7565b5b610362826101ee565b9050602081019050919050565b5f61038161037c8461033f565b610325565b90508281526020810184848401111561039d5761039c6102c3565b5b6103a88482856101e0565b509392505050565b5f82601f8301126103c4576103c36102bf565b5b81516103d484826020860161036f565b91505092915050565b5f602082840312156103f2576103f16102b7565b5b5f82015167ffffffffffffffff81111561040f5761040e6102bb565b5b61041b848285016103b0565b9150509291505056fea264697066735822122069c3a87b9deea292cb658504d86b24663a7e3a48e2c0c742b441b86b78a7d4fb64736f6c63430008210033","linkReferences":{}},"methodIdentifiers":{"getAsset()":"5c222bad","getAssetName()":"092d4eb5"},"id":21}