{"abi":[{"type":"constructor","inputs":[{"name":"_asset","type":"address","internalType":"contract ERC20"}],"stateMutability":"nonpayable"},{"type":"fallback","stateMutability":"payable"},{"type":"receive","stateMutability":"payable"},{"type":"function","name":"addReward","inputs":[{"name":"amount","type":"uint256","internalType":"uint256"}],"outputs":[],"stateMutability":"nonpayable"},{"type":"function","name":"assetOf","inputs":[{"name":"user","type":"address","internalType":"address"}],"outputs":[{"name":"totalAssetUser","type":"uint256","internalType":"uint256"},{"name":"totalSharesUser","type":"uint256","internalType":"uint256"}],"stateMutability":"view"},{"type":"function","name":"cancelOwnershipHandover","inputs":[],"outputs":[],"stateMutability":"payable"},{"type":"function","name":"completeOwnershipHandover","inputs":[{"name":"pendingOwner","type":"address","internalType":"address"}],"outputs":[],"stateMutability":"payable"},{"type":"function","name":"currentRatio","inputs":[],"outputs":[{"name":"ratio","type":"uint256","internalType":"uint256"}],"stateMutability":"view"},{"type":"function","name":"deposit","inputs":[{"name":"assets","type":"uint256","internalType":"uint256"}],"outputs":[{"name":"shares","type":"uint256","internalType":"uint256"}],"stateMutability":"nonpayable"},{"type":"function","name":"getAsset","inputs":[],"outputs":[{"name":"","type":"address","internalType":"address"}],"stateMutability":"view"},{"type":"function","name":"getAssetName","inputs":[],"outputs":[{"name":"","type":"string","internalType":"string"}],"stateMutability":"view"},{"type":"function","name":"owner","inputs":[],"outputs":[{"name":"result","type":"address","internalType":"address"}],"stateMutability":"view"},{"type":"function","name":"ownershipHandoverExpiresAt","inputs":[{"name":"pendingOwner","type":"address","internalType":"address"}],"outputs":[{"name":"result","type":"uint256","internalType":"uint256"}],"stateMutability":"view"},{"type":"function","name":"previewDeposit","inputs":[{"name":"assets","type":"uint256","internalType":"uint256"}],"outputs":[{"name":"","type":"uint256","internalType":"uint256"}],"stateMutability":"view"},{"type":"function","name":"renounceOwnership","inputs":[],"outputs":[],"stateMutability":"payable"},{"type":"function","name":"requestOwnershipHandover","inputs":[],"outputs":[],"stateMutability":"payable"},{"type":"function","name":"reviewWithdraw","inputs":[{"name":"shares","type":"uint256","internalType":"uint256"}],"outputs":[{"name":"","type":"uint256","internalType":"uint256"}],"stateMutability":"view"},{"type":"function","name":"transferOwnership","inputs":[{"name":"newOwner","type":"address","internalType":"address"}],"outputs":[],"stateMutability":"payable"},{"type":"function","name":"withdraw","inputs":[{"name":"shares","type":"uint256","internalType":"uint256"}],"outputs":[{"name":"assets","type":"uint256","internalType":"uint256"}],"stateMutability":"nonpayable"},{"type":"function","name":"withdrawAll","inputs":[],"outputs":[{"name":"assets","type":"uint256","internalType":"uint256"}],"stateMutability":"nonpayable"},{"type":"event","name":"Deposit","inputs":[{"name":"user","type":"address","indexed":true,"internalType":"address"},{"name":"asset","type":"uint256","indexed":false,"internalType":"uint256"},{"name":"shares","type":"uint256","indexed":false,"internalType":"uint256"}],"anonymous":false},{"type":"event","name":"OwnershipHandoverCanceled","inputs":[{"name":"pendingOwner","type":"address","indexed":true,"internalType":"address"}],"anonymous":false},{"type":"event","name":"OwnershipHandoverRequested","inputs":[{"name":"pendingOwner","type":"address","indexed":true,"internalType":"address"}],"anonymous":false},{"type":"event","name":"OwnershipTransferred","inputs":[{"name":"oldOwner","type":"address","indexed":true,"internalType":"address"},{"name":"newOwner","type":"address","indexed":true,"internalType":"address"}],"anonymous":false},{"type":"event","name":"RewardAdded","inputs":[{"name":"amout","type":"uint256","indexed":false,"internalType":"uint256"}],"anonymous":false},{"type":"event","name":"Withdraw","inputs":[{"name":"user","type":"address","indexed":true,"internalType":"address"},{"name":"assets","type":"uint256","indexed":false,"internalType":"uint256"},{"name":"shares","type":"uint256","indexed":false,"internalType":"uint256"}],"anonymous":false},{"type":"error","name":"AlreadyInitialized","inputs":[]},{"type":"error","name":"InsufficientShares","inputs":[]},{"type":"error","name":"NewOwnerIsZeroAddress","inputs":[]},{"type":"error","name":"NoHandoverRequest","inputs":[]},{"type":"error","name":"Reentrancy","inputs":[]},{"type":"error","name":"Unauthorized","inputs":[]},{"type":"error","name":"ZeroAssets","inputs":[]},{"type":"error","name":"ZeroShares","inputs":[]}],"bytecode":{"object":"0x60a060405234801561000f575f5ffd5b50604051611538380380611538833981810160405281019061003191906100da565b8073ffffffffffffffffffffffffffffffffffffffff1660808173ffffffffffffffffffffffffffffffffffffffff168152505050610105565b5f5ffd5b5f73ffffffffffffffffffffffffffffffffffffffff82169050919050565b5f6100988261006f565b9050919050565b5f6100a98261008e565b9050919050565b6100b98161009f565b81146100c3575f5ffd5b50565b5f815190506100d4816100b0565b92915050565b5f602082840312156100ef576100ee61006b565b5b5f6100fc848285016100c6565b91505092915050565b6080516113f86101405f395f81816103c1015281816106a0015281816107840152818161086e01528181610aca0152610c2101526113f85ff3fe608060405260043610610101575f3560e01c8063853828b611610094578063e104c32e11610063578063e104c32e146102d1578063ef8b30f71461030d578063f04e283e14610349578063f2fde38b14610365578063fee81cf41461038157610102565b8063853828b6146102175780638da5cb5b14610241578063b131da401461026b578063b6b55f251461029557610102565b80635c222bad116100d05780635c222bad1461017e578063715018a6146101a857806371f96211146101b257806374de4ec4146101ef57610102565b8063092d4eb514610104578063256929621461012e5780632e1a7d4d1461013857806354d1f13d1461017457610102565b5b005b34801561010f575f5ffd5b506101186103bd565b6040516101259190610f62565b60405180910390f35b6101366104d9565b005b348015610143575f5ffd5b5061015e60048036038101906101599190610fc6565b61052a565b60405161016b9190611000565b60405180910390f35b61017c610748565b005b348015610189575f5ffd5b50610192610781565b60405161019f9190611058565b60405180910390f35b6101b06107a8565b005b3480156101bd575f5ffd5b506101d860048036038101906101d3919061109b565b6107bb565b6040516101e69291906110c6565b60405180910390f35b3480156101fa575f5ffd5b5061021560048036038101906102109190610fc6565b61080d565b005b348015610222575f5ffd5b5061022b6108f9565b6040516102389190611000565b60405180910390f35b34801561024c575f5ffd5b50610255610952565b6040516102629190611058565b60405180910390f35b348015610276575f5ffd5b5061027f61097a565b60405161028c9190611000565b60405180910390f35b3480156102a0575f5ffd5b506102bb60048036038101906102b69190610fc6565b6109cf565b6040516102c89190611000565b60405180910390f35b3480156102dc575f5ffd5b506102f760048036038101906102f29190610fc6565b610b72565b6040516103049190611000565b60405180910390f35b348015610318575f5ffd5b50610333600480360381019061032e9190610fc6565b610b83565b6040516103409190611000565b60405180910390f35b610363600480360381019061035e919061109b565b610b94565b005b61037f600480360381019061037a919061109b565b610bd2565b005b34801561038c575f5ffd5b506103a760048036038101906103a2919061109b565b610bfb565b6040516103b49190611000565b60405180910390f35b60607f000000000000000000000000000000000000000000000000000000000000000073ffffffffffffffffffffffffffffffffffffffff166306fdde036040518163ffffffff1660e01b81526004015f60405180830381865afa92505050801561044a57506040513d5f823e3d601f19601f82011682018060405250810190610447919061120b565b60015b61048b576040518060400160405280600d81526020017f556e6b6e6f776e2041737365740000000000000000000000000000000000000081525090506104d6565b5f8151036104d1576040518060400160405280600d81526020017f556e6b6e6f776e204173736574000000000000000000000000000000000000008152509150506104d6565b809150505b90565b5f6104e2610c14565b67ffffffffffffffff164201905063389a75e1600c52335f52806020600c2055337fdbf36a107da19e49527a7176a1babf963b4b0ff8cde35ee35d6cd8f1f9ac7e1d5f5fa250565b5f3068929eee149b4bd2126854036105495763ab143c065f526004601cfd5b3068929eee149b4bd2126855816105675763234abd3f5f526004601cfd5b5f3390505f60015f8373ffffffffffffffffffffffffffffffffffffffff1673ffffffffffffffffffffffffffffffffffffffff1681526020019081526020015f20549050838110156105e6576040517f3999656700000000000000000000000000000000000000000000000000000000815260040160405180910390fd5b5f6105ef610c1e565b90506105fa85610cbc565b93505f8403610635576040517f32d971dc00000000000000000000000000000000000000000000000000000000815260040160405180910390fd5b8482610641919061127f565b60015f8573ffffffffffffffffffffffffffffffffffffffff1673ffffffffffffffffffffffffffffffffffffffff1681526020019081526020015f2081905550845f5f828254610692919061127f565b925050819055506106e483857f000000000000000000000000000000000000000000000000000000000000000073ffffffffffffffffffffffffffffffffffffffff16610cfa9092919063ffffffff16565b8273ffffffffffffffffffffffffffffffffffffffff167ff279e6a1f5e320cca91135676d9cb6e44ca8a08c0b88342bcdb1144f6511b568868660405161072c9291906110c6565b60405180910390a25050503868929eee149b4bd2126855919050565b63389a75e1600c52335f525f6020600c2055337ffa7b8eab7da67f412cc9575ed43464468f9bfbae89d1675917346ca6d8fe3c925f5fa2565b5f7f0000000000000000000000000000000000000000000000000000000000000000905090565b6107b0610d4e565b6107b95f610d85565b565b5f5f60015f8473ffffffffffffffffffffffffffffffffffffffff1673ffffffffffffffffffffffffffffffffffffffff1681526020019081526020015f2054905061080681610cbc565b9150915091565b610815610d4e565b3068929eee149b4bd2126854036108335763ab143c065f526004601cfd5b3068929eee149b4bd212685580610851576336dbd4855f526004601cfd5b5f54806108655763234abd3f5f526004601cfd5b506108b33330837f000000000000000000000000000000000000000000000000000000000000000073ffffffffffffffffffffffffffffffffffffffff16610e4b909392919063ffffffff16565b7fde88a922e0d3b88b24e9623efeb464919c6bf9f66857a65e2bfcf2ce87a9433d816040516108e29190611000565b60405180910390a13868929eee149b4bd212685550565b5f610902610d4e565b5f60015f3373ffffffffffffffffffffffffffffffffffffffff1673ffffffffffffffffffffffffffffffffffffffff1681526020019081526020015f2054905061094c8161052a565b91505090565b5f7fffffffffffffffffffffffffffffffffffffffffffffffffffffffff7487392754905090565b5f5f548061099557670de0b6b3a76400009150815f5260205ff35b505f81036109cc575f6109a6610c1e565b90505f54670de0b6b3a7640000826109be91906112b2565b6109c89190611320565b9150505b90565b5f3068929eee149b4bd2126854036109ee5763ab143c065f526004601cfd5b3068929eee149b4bd212685581610a0c576336dbd4855f526004601cfd5b610a1582610eb0565b90505f8103610a50576040517f9811e0c700000000000000000000000000000000000000000000000000000000815260040160405180910390fd5b5f3390508160015f8373ffffffffffffffffffffffffffffffffffffffff1673ffffffffffffffffffffffffffffffffffffffff1681526020019081526020015f205f828254610aa09190611350565b92505081905550815f5f828254610ab79190611350565b925050819055505f309050610b0f8282867f000000000000000000000000000000000000000000000000000000000000000073ffffffffffffffffffffffffffffffffffffffff16610e4b909392919063ffffffff16565b8173ffffffffffffffffffffffffffffffffffffffff167f90890809c654f11d6e72a28fa60149770a0d11ec6c92319d6ceb2bb0a4ea1a158585604051610b579291906110c6565b60405180910390a250503868929eee149b4bd2126855919050565b5f610b7c82610cbc565b9050919050565b5f610b8d82610eb0565b9050919050565b610b9c610d4e565b63389a75e1600c52805f526020600c208054421115610bc257636f5e88185f526004601cfd5b5f815550610bcf81610d85565b50565b610bda610d4e565b8060601b610bef57637448fbae5f526004601cfd5b610bf881610d85565b50565b5f63389a75e1600c52815f526020600c20549050919050565b5f6202a300905090565b5f7f000000000000000000000000000000000000000000000000000000000000000073ffffffffffffffffffffffffffffffffffffffff166370a08231306040518263ffffffff1660e01b8152600401610c789190611058565b602060405180830381865afa158015610c93573d5f5f3e3d5ffd5b505050506040513d601f19601f82011682018060405250810190610cb79190611397565b905090565b5f5f610cc6610c1e565b90505f5f5403610cd9575f915050610cf5565b5f548184610ce791906112b2565b610cf19190611320565b9150505b919050565b81601452806034526fa9059cbb0000000000000000000000005f5260205f604460105f875af18060015f511416610d4457803d853b151710610d43576390b8ec185f526004601cfd5b5b5f60345250505050565b7fffffffffffffffffffffffffffffffffffffffffffffffffffffffff74873927543314610d83576382b429005f526004601cfd5b565b610d8d610eee565b15610df2577fffffffffffffffffffffffffffffffffffffffffffffffffffffffff748739278160601b60601c91508181547f8be0079c531659141344cd1fd0a4f28419497f9722a3daafe3b4186f6b6457e05f5fa3811560ff1b8217815550610e48565b7fffffffffffffffffffffffffffffffffffffffffffffffffffffffff748739278160601b60601c91508181547f8be0079c531659141344cd1fd0a4f28419497f9722a3daafe3b4186f6b6457e05f5fa3818155505b50565b60405181606052826040528360601b602c526f23b872dd000000000000000000000000600c5260205f6064601c5f895af18060015f511416610ea057803d873b151710610e9f57637939f4245f526004601cfd5b5b5f60605281604052505050505050565b5f5f610eba610c1e565b90505f5f5403610ecd5782915050610ee9565b805f5484610edb91906112b2565b610ee59190611320565b9150505b919050565b5f90565b5f81519050919050565b5f82825260208201905092915050565b8281835e5f83830152505050565b5f601f19601f8301169050919050565b5f610f3482610ef2565b610f3e8185610efc565b9350610f4e818560208601610f0c565b610f5781610f1a565b840191505092915050565b5f6020820190508181035f830152610f7a8184610f2a565b905092915050565b5f604051905090565b5f5ffd5b5f5ffd5b5f819050919050565b610fa581610f93565b8114610faf575f5ffd5b50565b5f81359050610fc081610f9c565b92915050565b5f60208284031215610fdb57610fda610f8b565b5b5f610fe884828501610fb2565b91505092915050565b610ffa81610f93565b82525050565b5f6020820190506110135f830184610ff1565b92915050565b5f73ffffffffffffffffffffffffffffffffffffffff82169050919050565b5f61104282611019565b9050919050565b61105281611038565b82525050565b5f60208201905061106b5f830184611049565b92915050565b61107a81611038565b8114611084575f5ffd5b50565b5f8135905061109581611071565b92915050565b5f602082840312156110b0576110af610f8b565b5b5f6110bd84828501611087565b91505092915050565b5f6040820190506110d95f830185610ff1565b6110e66020830184610ff1565b9392505050565b5f5ffd5b5f5ffd5b7f4e487b71000000000000000000000000000000000000000000000000000000005f52604160045260245ffd5b61112b82610f1a565b810181811067ffffffffffffffff8211171561114a576111496110f5565b5b80604052505050565b5f61115c610f82565b90506111688282611122565b919050565b5f67ffffffffffffffff821115611187576111866110f5565b5b61119082610f1a565b9050602081019050919050565b5f6111af6111aa8461116d565b611153565b9050828152602081018484840111156111cb576111ca6110f1565b5b6111d6848285610f0c565b509392505050565b5f82601f8301126111f2576111f16110ed565b5b815161120284826020860161119d565b91505092915050565b5f602082840312156112205761121f610f8b565b5b5f82015167ffffffffffffffff81111561123d5761123c610f8f565b5b611249848285016111de565b91505092915050565b7f4e487b71000000000000000000000000000000000000000000000000000000005f52601160045260245ffd5b5f61128982610f93565b915061129483610f93565b92508282039050818111156112ac576112ab611252565b5b92915050565b5f6112bc82610f93565b91506112c783610f93565b92508282026112d581610f93565b915082820484148315176112ec576112eb611252565b5b5092915050565b7f4e487b71000000000000000000000000000000000000000000000000000000005f52601260045260245ffd5b5f61132a82610f93565b915061133583610f93565b925082611345576113446112f3565b5b828204905092915050565b5f61135a82610f93565b915061136583610f93565b925082820190508082111561137d5761137c611252565b5b92915050565b5f8151905061139181610f9c565b92915050565b5f602082840312156113ac576113ab610f8b565b5b5f6113b984828501611383565b9150509291505056fea2646970667358221220300cae97016c3047dedf9fbc1fd32b65ab3f5c49b7bda0c3198ed7d83afd409764736f6c63430008210033","linkReferences":{}},"methodIdentifiers":{"addReward(uint256)":"74de4ec4","assetOf(address)":"71f96211","cancelOwnershipHandover()":"54d1f13d","completeOwnershipHandover(address)":"f04e283e","currentRatio()":"b131da40","deposit(uint256)":"b6b55f25","getAsset()":"5c222bad","getAssetName()":"092d4eb5","owner()":"8da5cb5b","ownershipHandoverExpiresAt(address)":"fee81cf4","previewDeposit(uint256)":"ef8b30f7","renounceOwnership()":"715018a6","requestOwnershipHandover()":"25692962","reviewWithdraw(uint256)":"e104c32e","transferOwnership(address)":"f2fde38b","withdraw(uint256)":"2e1a7d4d","withdrawAll()":"853828b6"},"id":25}