{"abi":[{"type":"function","name":"balance","inputs":[{"name":"user","type":"address","internalType":"address"}],"outputs":[{"name":"balance","type":"uint256","internalType":"uint256"}],"stateMutability":"view"},{"type":"function","name":"deposit","inputs":[],"outputs":[],"stateMutability":"payable"},{"type":"function","name":"getBalanceContract","inputs":[],"outputs":[{"name":"balanceContract","type":"uint256","internalType":"uint256"}],"stateMutability":"nonpayable"},{"type":"function","name":"withdraw","inputs":[{"name":"amount","type":"uint256","internalType":"uint256"}],"outputs":[],"stateMutability":"payable"}],"bytecode":{"object":"0x6080604052348015600e575f5ffd5b506106658061001c5f395ff3fe60806040526004361061003e575f3560e01c80632e1a7d4d1461004257806366bd78fd1461005e578063d0e30db014610088578063e3d670d714610092575b5f5ffd5b61005c6004803603810190610057919061033b565b6100ce565b005b348015610069575f5ffd5b5061007261024a565b60405161007f9190610375565b60405180910390f35b610090610251565b005b34801561009d575f5ffd5b506100b860048036038101906100b391906103e8565b6102f0565b6040516100c59190610375565b60405180910390f35b805f5f3373ffffffffffffffffffffffffffffffffffffffff1673ffffffffffffffffffffffffffffffffffffffff1681526020019081526020015f20541161014c576040517f08c379a00000000000000000000000000000000000000000000000000000000081526004016101439061046d565b60405180910390fd5b5f3373ffffffffffffffffffffffffffffffffffffffff1682604051610171906104b8565b5f6040518083038185875af1925050503d805f81146101ab576040519150601f19603f3d011682016040523d82523d5f602084013e6101b0565b606091505b50509050806101f4576040517f08c379a00000000000000000000000000000000000000000000000000000000081526004016101eb90610516565b60405180910390fd5b815f5f3373ffffffffffffffffffffffffffffffffffffffff1673ffffffffffffffffffffffffffffffffffffffff1681526020019081526020015f205f82825461023f9190610561565b925050819055505050565b5f47905090565b670de0b6b3a764000034101561029c576040517f08c379a0000000000000000000000000000000000000000000000000000000008152600401610293906105de565b60405180910390fd5b345f5f3373ffffffffffffffffffffffffffffffffffffffff1673ffffffffffffffffffffffffffffffffffffffff1681526020019081526020015f205f8282546102e791906105fc565b92505081905550565b5f602052805f5260405f205f915090505481565b5f5ffd5b5f819050919050565b61031a81610308565b8114610324575f5ffd5b50565b5f8135905061033581610311565b92915050565b5f602082840312156103505761034f610304565b5b5f61035d84828501610327565b91505092915050565b61036f81610308565b82525050565b5f6020820190506103885f830184610366565b92915050565b5f73ffffffffffffffffffffffffffffffffffffffff82169050919050565b5f6103b78261038e565b9050919050565b6103c7816103ad565b81146103d1575f5ffd5b50565b5f813590506103e2816103be565b92915050565b5f602082840312156103fd576103fc610304565b5b5f61040a848285016103d4565b91505092915050565b5f82825260208201905092915050565b7f4e6f7420656e6f756768204d6f6e6579000000000000000000000000000000005f82015250565b5f610457601083610413565b915061046282610423565b602082019050919050565b5f6020820190508181035f8301526104848161044b565b9050919050565b5f81905092915050565b50565b5f6104a35f8361048b565b91506104ae82610495565b5f82019050919050565b5f6104c282610498565b9150819050919050565b7f6e6f74206d792070726f626c656d0000000000000000000000000000000000005f82015250565b5f610500600e83610413565b915061050b826104cc565b602082019050919050565b5f6020820190508181035f83015261052d816104f4565b9050919050565b7f4e487b71000000000000000000000000000000000000000000000000000000005f52601160045260245ffd5b5f61056b82610308565b915061057683610308565b925082820390508181111561058e5761058d610534565b5b92915050565b7f4e6f7420656e676f7568204554480000000000000000000000000000000000005f82015250565b5f6105c8600e83610413565b91506105d382610594565b602082019050919050565b5f6020820190508181035f8301526105f5816105bc565b9050919050565b5f61060682610308565b915061061183610308565b925082820190508082111561062957610628610534565b5b9291505056fea2646970667358221220fee743a7dd1e21a0c4f8d127132c62b9cf0997d5c7e1c1806d32683dbcba07eb64736f6c63430008210033","linkReferences":{}},"methodIdentifiers":{"balance(address)":"e3d670d7","deposit()":"d0e30db0","getBalanceContract()":"66bd78fd","withdraw(uint256)":"2e1a7d4d"},"id":19}